:100E72000A128A11DC2F03178316880103138316C3
:100E820085010313831285017E3085000A128A11BF
:100E920008000317831688010313831685010313C1
:100EA20083128501303085000A128A110800031767
:100EB20083168801031383168501031383128501A8
:100EC2006D3085000A128A11080003178316880103
:100ED200031383168501031383128501793085007C
:100EE2000A128A1108000317831688010313831656
:100EF2008501031383128501333085000A128A119A
:100F02000800031783168801031383168501031350
:100F1200831285015B3085000A128A1108000317CB
:100F22008316880103138316850103138312850137
:100F32005F3085000A128A110800031783168801A0
:100F42000313831685010313831285017030850014
:100F52000A128A11080003178316880103138316E5
:100F620085010313831285017F3085000A128A11DD
:100F720008000317831688010313831685010313E0
:100F8200831285017B3085000A128A11080003133F
:100F920083120130A000A00FCC2F03138312013063
:100FA200A100A10FD22F031383120130A200A20FBE
:100FB200A21DD82F08000313831285010313831681
:100FC20085010313831671308F0000308500000005
:100FD2000A128A113C27C8274A27C8275827C82738
:100FE2006627C8277427C8278227C8279027C827BB
:0E0FF2009E27C827AC27C827BA27C827E92F93
:04400E00C408FF3FA4
:00000001FF
